:100000000C942A000C9434000C9434000C943400AA
:100010000C9434000C9434000C9434000C94340090
:100020000C9434000C9434000C9434000C94340080
:100030000C9434000C9434000C9434000C94340070
:100040000C9434000C9434000C9434000C94340060
:100050000C94340011241FBECFE5D4E0DEBFCDBF29
:100060000E947C000C94CE000C940000413069F496
:10007000E82FF0E0218181E090E002C0880F991F15
:100080006A95E2F7822B81830895E82FF0E02181C1
:1000900081E090E002C0880F991F6A95E2F7809591
:1000A000822381830895413069F4E82FF0E02281B2
:1000B00081E090E002C0880F991F6A95E2F7822BD9
:1000C00082830895E82FF0E0228181E090E002C071
:1000D000880F991F6A95E2F780958223828308959D
:1000E000E82FF0E0208181E090E002C0880F991FA6
:1000F0006A95E2F78223089541E060E089E30E9477
:10010000360041E062E086E30E94360040E061E0B4
:1001100083E30E94360041E061E083E30E945300E4
:1001200061E083E30E94700081112DC041E060E036
:1001300089E30E94530087EA91E60197F1F700C036
:10014000000040E060E089E30E94530087EA91E606
:100150000197F1F700C0000041E062E086E30E94F1
:10016000530087EA91E60197F1F700C0000040E0F4
:1001700062E086E30E94530087EA91E60197F1F777
:1001800000C00000CDCF40E060E089E30E94530052
:1001900040E062E086E30E945300C2CFF894FFCFB4
:00000001FF
